:03000000020C5798
:0C0C5700787FE4F6D8FD758139020C9E10
:100DA300102A7E306D79335B5F707F7B771F4E3DFA
:020DB3004F47A8
:10080000E4F511F515F518F51CF51BF51AF519F5B4
:1008100020F51FF51EF51D7D017F0C120DB6E4FDC0
:100820007F0F120DB6E4FD7F09120DB67D077F0B19
:10083000120DB6E4FD7F0A120DB6D2B4D2B5D2B60F
:10084000E51114600B14600C2402700CC2B6800A0F
:10085000C2B58006C2B48002C2B4E510B511123030
:10086000A70375120030A60375130030A503751495
:1008700000208706E5086401602120A706E50964D9
:1008800001601820A606E50A6401600F30A5030286
:10089000099EE50B6401600302099E7F0A7E001237
:1008A0000D66E515600DF516E4F515F520F51FF557
:1008B0001EF51D851110208719AF20AE1FAD1EAC8F
:1008C0001DE47B0AFAF9F8120A958F208E1F8D1EFF
:1008D0008C1D20A741E512703D7512017F0AFEFDB7
:1008E000FCAB20AA1FA91EA81D120A95A804A905E1
:1008F000AA06AB07E51175F003A42401FFE435F067
:10090000FE3395E0FDFCEB2FF520EA3EF51FE93DB7
:10091000F51EE83CF51D20A641E513703D75130159
:100920007F0AFEFDFCAB20AA1FA91EA81D120A9576
:10093000A804A905AA06AB07E51175F003A42402D3
:10094000FFE435F0FE3395E0FDFCEB2FF520EA3EA9
:10095000F51FE93DF51EE83CF51D20A541E51470A5
:100960003D7514017F0AFEFDFCAB20AA1FA91EA83D
:100970001D120A95A804A905AA06AB07E51175F092
:1009800003A42403FFE435F0FE3395E0FDFCEB2FD8
:10099000F520EA3EF51FE93DF51EE83CF51D20B2C5
:1009A00006E50C6401601B20B306E50D64016012CE
:1009B00020A006E50E6401600920A177E50F64011F
:1009C00070717F0A7E00120D6620B222E515701349
:1009D000120BC38F208E1F8D1E8C1D8F1C8E1B8DA6
:1009E0001A8C190515E5156405700375150120B3FA
:1009F00019AF20AE1FAD1EAC1DE47B0AFAF9F81248
:100A00000B208F208E1F8D1E8C1D20A015E4F51548
:100A1000F516F520F51FF51EF51DF51CF51BF51A4D
:100A2000F51920A10E120BC38F208E1F8D1E8C1D59
:100A3000E4F5150511E51164037002F51175181040
:100A4000C374049515FFEF6009E51825E0F5181F3C
:100A500080F4E518F4F590A287E433F508A2A7E442
:100A600033F509A2A6E433F50AA2A5E433F50BA2F7
:100A7000B2E433F50CA2B3E433F50DA2A0E433F5F0
:100A80000EA2A1E433F50FAF20AE1FAD1EAC1D12B8
:050A90000CE302083A2E
:100D8700E4FEEEC3940874809480500FC2A2EF3340
:0B0D970092A4EF25E0FFD2A20E80E73F
:010DA200222E
:0D0DB600C2A3120D87AF05120D87D2A32234
:080CE3008F248E238D228C2149
:100CEB00E4F525F526F527752801D3E5289401E5CC
:100CFB002794004016E4FFFEFDFCAB24AA23A92297
:100D0B00A821120BB27004AF28803AE47B0AFAF9DF
:100D1B00F8AF24AE23AD22AC21120B20AE02AF03F1
:100D2B008E258F26AF24AE23AD22AC21E47B0AFAAD
:100D3B00F9F8120B208F248E238D228C21AF28746F
:100D4B002A2526F8E6FD120DB60528E528700205C2
:0A0D5B0027D39408E5279400409088
:010D6500226B
:100BC300852028851F27851E26851D25851629AF87
:070BD3001CAE1BAD1AAC19AA
:100BDA008F248E238D228C21E529FB7A00640170F3
:100BEA0015E5242528FFE5233527FEE5223526FDD0
:100BFA00E5213525FC22EB64024A7016C3E52495EB
:100C0A0028FFE5239527FEE5229526FDE521952572
:100C1A00FC22E52964037013AF28AE27AD26AC2564
:100C2A00AB24AA23A922A821020A95E52964047003
:100C3A0013AB28AA27A926A825AF24AE23AD22AC38
:0D0C4A0021020B20AF28AE27AD26AC2522DD
:100D6600E4FDFCC3ED9FEC9E5016E4FBEBC39478C8
:100D76007480948050030B80F30DBD00010C80E35A
:010D8600224A
:100C6300020800E493A3F8E493A34003F68001F29F
:100C730008DFF48029E493A3F85407240CC8C33392
:100C8300C4540F4420C8834004F456800146F6DF61
:100C9300E4800B0102040810204080900DA3E47E41
:100CA300019360BCA3FF543F30E509541FFEE49356
:100CB300A360010ECF54C025E060A840B8E493A31D
:100CC300FAE493A3F8E493A3C8C582C8CAC583CA48
:100CD300F0A3C8C582C8CAC583CADFE9DEE780BE00
:010DB500003D
:100A9500E88FF0A4CC8BF0A42CFCE98EF0A42CFC00
:100AA5008AF0EDA42CFCEA8EF0A4CDA8F08BF0A47E
:100AB5002DCC3825F0FDE98FF0A42CCD35F0FCEBDD
:100AC5008EF0A4FEA9F0EB8FF0A4CFC5F02ECD39A2
:0F0AD500FEE43CFCEAA42DCE35F0FDE43CFC220F
:100AE40075F008758200EF2FFFEE33FECD33CDCCC9
:100AF40033CCC58233C5829BED9AEC99E58298404C
:100B04000CF582EE9BFEED9AFDEC99FC0FD5F0D628
:100B1400E4CEFBE4CDFAE4CCF9A88222B800C1B952
:100B24000059BA002DEC8BF084CFCECDFCE5F0CB90
:100B3400F97818EF2FFFEE33FEED33FDEC33FCEBC9
:100B440033FB10D703994004EB99FB0FD8E5E4F984
:100B5400FA227818EF2FFFEE33FEED33FDEC33FC71
:100B6400C933C910D7059BE99A4007EC9BFCE99A65
:100B7400F90FD8E0E4C9FAE4CCFB2275F010EF2FAA
:100B8400FFEE33FEED33FDCC33CCC833C810D707AA
:100B94009BEC9AE899400AED9BFDEC9AFCE899F8E5
:0E0BA4000FD5F0DAE4CDFBE4CCFAE4C8F92278
:100BB200EB9FF5F0EA9E42F0E99D42F0E89C45F099
:010BC2002210
:00000001FF
