:03000000020EC528
:0C0EC500787FE4F6D8FD758131020F0C37
:100CFF0050726F74726163746F720074616E203D15
:100D0F00202030000000000000000000000000085C
:100D1F0000080008000800080000006000600000E4
:100D2F000000003E005100490045003E0000004217
:100D3F00007F004000000042006100510049004662
:100D4F00002100410045004B003100180014001233
:100D5F00007F001000270045004500450039003C8A
:100D6F00004A0049004900300001007100090005E8
:100D7F0000030036004900490049003600060049CB
:100D8F0000490029001E0014001400140014001460
:100D9F00007F0009000900090006002000540054DC
:100DAF000054007800380044004400440020007CC8
:100DBF000008000400040078003800440044004498
:100DCF000038007C00080004000400080004003F05
:060DDF000044004000206A
:1011FE000116000117010118060619000000000073
:10120E0000060F00000000000006080000000000AD
:01121E0000CF
:1010A1007FA81212B47F3F1212B47FD31212B4E49C
:1010B100FF1212B47F401212B47FA11212B47FC882
:1010C1001212B47FDA1212B47F121212B47F81129B
:1010D10012B47F7F1212B47FA41212B47FA612122F
:1010E100B47FD51212B47F801212B47F8D1212B464
:0D10F1007F141212B47FAF1212B40210FE71
:070DE500120B09EF2430FF9F
:100DEC00E4F52AEF640A7003020EC4BF2005E4F593
:100DFC002BF52CBF2D06752B00752C01BF2E0675FF
:100E0C002B00752C02EFFD7C00C394307480948011
:100E1C004014D3ED943974809480500AED24D3F5AA
:100E2C002CEC34FFF52BBF3D06752B00752C0DBF3C
:100E3C005006752B00752C0EBF6106752B00752C9A
:100E4C000FBF6306752B00752C10BF6E06752B003B
:100E5C00752C11BF6F06752B00752C12BF720675A1
:100E6C002B00752C13BF7406752B00752C14AE2B30
:100E7C00AF2C7C007D05120AF78E2B8F2CE4F52A03
:100E8C00AF2A7E00C3EF9405748094805025E52C26
:100E9C002FFFEE352BFEEF25E0FFEE33FE74132F04
:100EAC00F582740D3EF583E4740193FF1212BD05B7
:080EBC002A80CDE4FF1212BDF3
:010EC400220B
:1011B6008B278A288929AB27AA28A929120ADE6043
:1011C600130529E5297002052814F9120ADEFF1213
:0511D6000DEC80E22297
:1010FE00E4F528C3E5289408748094805022E4FD1A
:10110E00AF281211DBE4F527C3E527948074809491
:10111E00805009E4FF1212BD052780EC052880D30C
:01112E00229E
:1011DB008F298D2A052A052AE52A540FFF1212B4EE
:1011EB00E52AC4540F4410FF1212B4E52944B0FF92
:0311FB000212B429
:0912B400AB07E4FD7F7802124152
:0912BD00AB077D407F780212416D
:0F127300D281D28012125CC28112125CC2802220
:0C129000C281D28012125CD28102125C7A
:0E128200A2009281D28012125CC28002125C25
:0C129C00D28012125CA281C28002125C9F
:02118D008F30A1
:10118F00E4F531C3E5319408748094805016E5304E
:10119F0025E0F5309281D28012125CC28012125C6F
:0711AF00053180DF02129CF4
:10112F00E4F52ED281F52DC3E52D940874809480BB
:10113F00501AE52E25E0F52ED28012125CA281E422
:0E114F0033422EC28012125C052D80DBAF2EC3
:01115D00226F
:101241008F2D8D2E8B2F121273AF2D12118DAF2E6C
:0B12510012118DAF2F12118D021290B0
:04115E008F2A8D2B1C
:10116200121273AF2A12118DAF2B12118D1212901F
:10117200121273E52A4401FF12118D12112F8F2CC6
:0A118200D200121282121290AF2C5C
:01118C002240
:10125C00E4FFEFFD3395E0FCC3ED9405EC64809462
:06126C008050030F80EC2E
:011272002259
:100F5100752701752803E4FB7F64FE121220E4FB70
:100F61001212C67F647E001212207B077D687FD03B
:100F71001212CA7B011212C67B037D1A7FD0121294
:100F8100CAE4FB7D197FD01212CAE51733333354FB
:100F9100F8FB7D1B7FD01212CAE51633333354F8A8
:100FA100FB7D1C7FD01212CAAB287D1D7FD012128F
:100FB100CA7B227D377FD01212CAE4FB7D387FD0F5
:030FC1000212CA4F
:0412C6007D6B7FD0ED
:0312CA00021241CC
:0312CD0002115EAD
:100FC4008B278A2889297D3B7FD01212CD8F087DFB
:100FD4003C7FD01212CD8F097D3D7FD01212CD8F70
:100FE4000A7D3E7FD01212CD8F0B7D3F7FD012122F
:100FF400CD8F0C7D407FD01212CD8F0DE508FFE51B
:1010040009AB27AA28A929CF8FF0120B3FE50AFFC5
:10101400E50BAB27AA28A929900002CF8FF0120B69
:0F1024005EE50CFFE50D900004CF8FF0020B5E30
:101033008B278A2889297D487FD01212CD8F0D7D79
:10104300477FD01212CD8F0C7D467FD01212CD8FE9
:101053000B7D457FD01212CD8F0A7D447FD01212B3
:10106300CD8F097D437FD01212CD8F08EFFFE509A5
:10107300AB27AA28A929CF8FF0120B3FE50AFFE57A
:101083000BAB27AA28A929900002CF8FF0120B5E81
:0E109300E50CFFE50D900004CF8FF0020B5E20
:0C12A8007B801212C67F647E00021220C0
:10122000E4FDFCC3ED9FEC9E5016E4FBEBC3945A27
:101230007480948050030B80F30DBD00010C80E39B
:01124000228B
:100BEE00E4F524F523F522F521D281D2801210A14D
:100BFE00120F51E4FD7F021211DB7BFF7A0C79FF9D
:100C0E001211B6E4FD7F031211DB7BFF7A0D790A18
:100C1E001211B67B007A007919120FC47B007A008C
:100C2E00790F121033AC19AD1AEC120A24C004C09D
:100C3E0005C006C007AC1BAD1CEC120A24A804A903
:100C4E0005AA06AB07D007D006D005D004120909B5
:100C5E008F248E238D228C217D237F031211DBE4C2
:100C6E00FFFEFDFCAB24AA23A922A8211209A6503F
:100C7E00217F2D120DECAF24AE23AD22AC21E4FB6F
:100C8E00FA798078BF1208008F248E238D228C2152
:100C9E0080057F20120DECAF24AE23AD22AC21E4F3
:100CAE00FBFA79C878421208008F248E238D228C8D
:100CBE0021120A5D8E258F267C007D64120DE57F44
:100CCE002E120DECAE25AF267C007D64120B097E34
:100CDE00007F0ACFCDCFCECCCE120DE5AE25AF26FE
:100CEE007C007D0A120B09ED2430FF120DEC020C74
:010CFE0021D4
:10080000EC4D6011E8497017ED33EC3304600DE4F2
:10081000FCFFFEFD22E933E8330470F8020AC91236
:100820000A9458046009E4CC248150062850090237
:100830000AD3284003020AD0C0E0EB4A7044B980D2
:1008400006D0E0FB020ABFEF4E701CBD8008EBFF34
:10085000EAFEE9FD80EBE98DF0A4FEE5F00208E98F
:10086000E9CDF9EAFEEBFFEF89F0A4FCE5F0CE89D3
:10087000F0A42EFFE435F0CD89F0A42DFEE435F090
:100880008067EF4E7005BD80D780C3EF8BF0A4ACBE
:10089000F0EE8BF0A42CFCE435F0F8EF8AF0A42CF9
:1008A000E5F038FCE433CB8DF0A42CFCE5F03BF80C
:1008B000EE8AF0A42CFCE5F038F8E433CF89F0A4FC
:1008C0002CFCE5F038CF3400CE89F0A42FFFE5F002
:1008D0003EFEE433C98DF0A42EFEE5F039CD8AF05A
:1008E000A42FFFE5F03EFEE43DFD33D0E0FB5007D2
:1008F0000BBB000F020AD3EC2CFCEF33FFEE33FEF0
:06090000ED33FD020AAB1D
:10090600020AD3EC5D046005E859047003020AC9C3
:10091600120A94580460F6EC4860F2EC7004FDFE8E
:10092600FF22C860DB2481C85009C39860025006C4
:10093600020AD09850CAF582E9294B4A7005AB8263
:10094600020ABF75F0007C1A7880C3EF9BEE9AED21
:1009560099400DC3EF9BFFEE9AFEED99FDE842F03C
:10096600DC23ACF0D0E0FFD0E0FED0E0FDAB82208F
:10097600E7101BEB60BAEC2CFCEF33FFEE33FEED19
:1009860033FD020AABE803F830E705C0F075F00066
:10099600EF2FFFEE33FEED33FD40B830E7C280AAFD
:1009A60074F8CC6480CCC86480C8F58204604FC3F8
:1009B600EB9FF5F0EA9E42F0E99D42F0E89C45F097
:1009C600603C501DE5825FFFE582D313CB5BCBF421
:1009D6002B5582FB50280ABA002409B9002008804A
:1009E6001DE5825BFBE582D313CF5FCFF4C3132FE4
:1009F6005582FF50090EBE00050DBD00010CC3EB6C
:100A06009FF5F0EA9E42F0E99D42F0E89C45F060D1
:090A160007CC4820E701B3EC22F3
:100A1F0075F020800E75F010800575F0087D007E52
:100A2F00007F003392D530D503120B8BEC3340107F
:100A3F00EF33FFEE33FEED33FDEC33FCD5F0ED225B
:0E0A4F00E5F0247EA2D513CC92E7CDCEFF2297
:100A5D00EDD2E7CD33EC3392D524814006E4FFFE91
:100A6D00FDFC22FCE4CFCECDCC24E0501174FF80F0
:100A7D00EDC3CC13CCCD13CDCE13CECF13CF04708D
:070A8D00F030D5DE020B8BF7
:100A9400E9D2E7C933E833F892D5EDD2E7CD33ECA8
:070AA40033FC5002B2D52221
:100AAB00EC30E7100FBF000C0EBE00080DBD0004AC
:100ABB000BEB6014A2D5EB13FCED92E7FD2274FF58
:100ACB00FCFDFEFF22E480F8A2D574FF13FC7D80B1
:030ADB00E480EFC5
:100ED100020BEEE493A3F8E493A34003F68001F23E
:100EE10008DFF48029E493A3F85407240CC8C33322
:100EF100C4540F4420C8834004F456800146F6DFF1
:100F0100E4800B01020408102040809011FEE47E71
:100F1100019360BCA3FF543F30E509541FFEE493E5
:100F2100A360010ECF54C025E060A840B8E493A3AC
:100F3100FAE493A3F8E493A3C8C582C8CAC583CAD7
:100F4100F0A3C8C582C8CAC583CADFE9DEE780BE8F
:01121F0000CE
:100ADE00BB010689828A83E0225002E722BBFE0216
:090AEE00E32289828A83E4932249
:100AF700EF8DF0A4A8F0CF8CF0A428CE8DF0A42E13
:020B0700FE22CC
:100B0900C2D5EC30E709B2D5E4C39DFDE49CFCEE07
:100B190030E715B2D5E4C39FFFE49EFE120B99C3DB
:100B2900E49DFDE49CFC8003120B9930D507C3E4D6
:060B39009FFFE49EFE2276
:100B3F00BB010A89828A83F0E5F0A3F0225006F701
:0F0B4F0009A7F01922BBFE06F3E5F009F31922FE
:100B5E00F8BB0111E58229F582E5833AF583E8F0C9
:100B6E00E5F0A3F0225009E92582C8F608A6F02286
:0D0B7E00BBFE09E92582C8F2E5F008F2226D
:0E0B8B00C3E49FFFE49EFEE49DFDE49CFC227B
:100B9900BC000BBE0029EF8DF084FFADF022E4CC40
:100BA900F875F008EF2FFFEE33FEEC33FCEE9DEC09
:100BB900984005FCEE9DFE0FD5F0E9E4CEFD22ED4F
:100BC900F8F5F0EE8420D21CFEADF075F008EF2F99
:100BD900FFED33FD4007985006D5F0F222C398FD8A
:050BE9000FD5F0EA2227
:00000001FF
