:03000000020008F3
:0700610075180075087E759B
:060068000930750A6D75F8
:06006E000B79750C3375DF
:060074000D5B750E5F75C7
:06007A000F7075107F7588
:06008000117B751277757B
:06008600131F75144E75F6
:06008C00153D75164F75CD
:0500920017477519B4C9
:0300970002000361
:0500030012063980FE29
:08009A00AA82AB837C007D000B
:0900A200C3EC9AED9B500B7E5A51
:0900AB00DEFE0CBC00F10D80EE3C
:0100B4002229
:0600B500AA827B007C0022
:0300BB00BC08007E
:0E00BE005038EB2BFBC2A0C002C003C00412DE
:0E00CC00014BD004D003D002EA3392A1C0024F
:0E00DA00C003C00412014BD2A012014BD0048F
:0A00E800D003D00230A2034303014D
:0600F200EA2AFA0C80C3AB
:0300F8008B8222D6
:0E00FB00AA82C2A3758201C0021200B5D00213
:0D010900BA010A7582E01200B5AA82800AD0
:0A0116007582A01200B5AB828B02C7
:0E012000740F5AFC7B00758200C003C00412ED
:0E012E0000B5AD82D004D0038D027D00EA4200
:0E013C0003ED4204D2A3C2A0C2A18B828C8329
:01014A002292
:02014B007A0533
:03014D00DAFE22B5
:04015000AA827B0004
:03015400BB0800E5
:0E015700500CC2A0EA2A92A1FAD2A00B80EFAF
:010165002277
:0A016600C021858121AA82C2A48A6B
:0C01700082120150E52124FDF886821265
:07017C000150D2A4D02122A2
:0A018300C021858121C082C083C025
:0C018D00F0C0E0A82108C3E496E4089646
:0E019900E4089674800886F063F08095F050BC
:0C01A70010A821088606088607088602BA
:0501B300088603801323
:0C01B800A82108C3E496FE08E496FF08A6
:0701C400E496FA08E496FB43
:0401CB007A017B003A
:0E01CF00C374089AE49B406AEE4F6066C0025B
:0E01DD00C003C006C007740AC0E0E4C0E08E94
:0E01EB00828F83120A61AC8215811581D007C4
:0C01F900D006D003D002EC2408F88604E5
:0E0205008A05C002C003C006C007C0048D8277
:0E0213001201661581D007D006740AC0E0E41F
:0E022100C0E08E828F831207DBAC82AD8315A6
:0E022F00811581D003D0028C068D070ABA001B
:04023D00910B808E13
:0C0241008A048B05A82108C3E6940A0873
:0E024D00E6940008E6940008E6648094805071
:0E025B0022C374089AE49B401A74012AFCE442
:0D0269003BFDC004C0057401C0E08A821294
:0802760001661581D005D004DA
:05027E000CBC00010DA5
:040283008C028D0359
:0E028700C374089AE49B401B8A04C002C003A3
:0E029500E4C0E08C821201661581D003D00215
:0702A3000ABA00E00B80DD48
:0602AA00852181D0212214
:0A02B000C021858121C082C083C0F7
:0502BA00F07D017E0053
:0E02BF00C374089DE49E403D7408C39DFFE497
:0C02CD009EFAA82108EF26FFEA0836FA86
:0D02D9000886038F828A838BF0120A0824A6
:0C02E60008F886028D03C005C006C002A7
:0E02F2008B821201661581D006D0050DBD006D
:04030000BE0E80BBF2
:06030400852181D02122B9
:0A030A00C021858121C082C083C09C
:05031400F07D017E00F8
:0E031900C374089DE49E404B7408C39DFFE42E
:0C0327009EFAAB187C00EB2FFFEC3A5361
:0C03330007077A00A82108EF26FFEA085F
:0E033F0036FA0886038F828A838BF0120A0832
:0C034D002408F886028D03C005C006C01D
:0E035900028B821201661581D006D0050DBD03
:0503670000B00E80ADA6
:08036C0005187408B5180375AB
:0203740018006F
:0A0376009003E812009A852181D05F
:02038000212238
:0E0382007401C0E075820C1201661581E4C0A2
:0E039000E075820F1201661581E4C0E07582EF
:0E039E000912016615817407C0E075820B120A
:0E03AC0001661581740EC0E075820A120166AA
:0403BA0015817A012E
:0503BE007408B5020007
:0E03C3004011C002E4C0E08A8212016615817A
:0503D100D0020A80E8E3
:0103D6002204
:0A03D700C2811204FAC2800204FA87
:0D03E100C2811204FAD2801204FAD2810205
:0203EE0004FA0F
:0A03F000A20092811204FAD28012DA
:0703FA0004FAC2800204FABC
:0B0401001204FAD2811204FAD2801219
:0C040C0004FAA28192D71204FAC28012F6
:0504180004FAA2D72246
:04041D00AA827B0034
:03042100BB080015
:0A0424005025EA30E704D28180027F
:02042E00C28189
:0E043000C002C0031204FAD2801204FAC28085
:0D043E001204FAD003D002EA2AFA0B80D68D
:03044B00020401A7
:06044E007A00D2817B0060
:03045400BB0800E2
:0E0457005029EA2AFAD280C002C0031204FA29
:0E046500D003D002A281E4334202C002C003E1
:0E0473001204FAC2801204FAD003D0020B80E9
:01048100D2A8
:030482008A822249
:0A048500C021858121AA82C0021265
:0A048F0003D7D0028A8212041DE593
:0A0499002124FDF8868212041DE5FF
:0A04A3002124FCF8868212041D12C9
:0504AD0003E1D0212253
:0A04B200C021858121AA82C0021238
:0C04BC0003D7D0028A82C00212041DE5A2
:0A04C8002124FDF8868212041D12A3
:0D04D20003E11203D7D00274014AF5821233
:0D04DF00041D12044EAA82D2F0C00285F066
:0504EC00201203F012D4
:0904F10003E1D0028A82D021222D
:0204FA007A0581
:0304FC00DAFE2203
:0604FF0075820702050BE7
:0605050075820602050BE1
:0A050B00C021E581F5212404F581EB
:0B051500AA82C0021203D785198212CF
:0E052000041DD0028A8212041DD281D28012E4
:09052E0003D774014519F582128E
:0E053700041D12044EAA827B00C2F0C002C056
:080545000385F0201203F012FF
:0E054D00044EAC82D003D0028C05E44202EDD5
:0C055B004203C2F0C002C00385F0201271
:0905670003F012044ED2F085F0FD
:05057000201203F0124F
:0E05750003E1D003D0028A828B83120993AA7D
:0E05830082AB83ACF0FDC002C003C004C00513
:0C05910090D70A75F0A3743C12080CA867
:0C059D002108A68208A68308A6F008F634
:0C05A900E58124FCF581A82108860208E9
:0E05B50086030886040886057433C0E074933C
:0E05C300C0E07488C0E07443C0E08A828B837D
:0C05D1008CF0ED1207D0A82108A68208CB
:0E05DD00A68308A6F008F6E58124FCF581A8A7
:0C05EB00210886020886030886040886A2
:0E05F70005C002C003C004C00590000075F0EE
:0C06050020744112080CA82108A68208ED
:0E061100A68308A6F008F6E58124FCF581A872
:0C061F002108860208860308860408866D
:0C062B00058A828B838CF0ED852181D044
:0206370021227E
:0B063900D2A2D2A3C2A0C2A112038271
:0B0644007582011200FB85821C85837B
:0A064F001D74E8C0E07403C0E085EC
:060659001C82851D8312C6
:0C065F0007DBAA8215811581EA2408F847
:0E066B008602430280C00275820412016615E9
:0C0679008174E8C0E07403C0E0851C82BE
:0C068500851D83120A61AA82AB831581D7
:0E06910015817464C0E0E4C0E08A828B83129D
:0C069F0007DBAA8215811581EA2408F807
:0E06AB008602C0027582031201661581746416
:0A06B900C0E0E4C0E0851C82851D4E
:0E06C30083120A61AA82AB8315811581740A25
:0E06D100C0E0E4C0E08A828B831207DBAA82BD
:0C06DF0015811581EA2408F88602C0028B
:0E06EB007582021201661581740AC0E0E4C037
:0806F900E0851C82851D8312BF
:0C0701000A61AA8215811581EA2408F81B
:0D070D008602C0027582011201661581127C
:07071A0004FF12095F858254
:0A0721001A85831B74E8C0E074031E
:09072B00C0E0851A82851B8312CF
:0E0734000A24AA82AB83158115817464C0E08B
:0E074200E4C0E08A828B83120AB9AA82158174
:0C0750001581EA2408F88602C0027582B8
:0E075C000712016615817464C0E0E4C0E085F8
:06076A001A82851B8312B8
:0E0770000A24AA82AB8315811581740AC0E0A9
:0E077E00E4C0E08A828B83120AB9AA82158138
:0C078C001581EA2408F88602430280C0B0
:0E079800027582061201661581740AC0E0E443
:0907A600C0E0851A82851B831254
:0C07AF000A24AA8215811581EA2408F8AA
:0D07BB008602C0027582051201661581904C
:0807C800006412009A020644CD
:0B07D000A8811818C6B2E7C60209068F
:0A07DB00E58124FEF8E6F918E6F8BF
:0507E5007A10E4FBFCAA
:0E07EA00E58225E0F582E58333F583EB33FBF2
:0E07F800EC33FCEB98F5F0EC994006FCABF00E
:0308060043820129
:03080900DADF2211
:06080C001208AFBC00035E
:030812000209C018
:08081500EF60FA30D502B2D108
:08081D00E583B4FF030209D6D4
:08082500E582B4FF030209D6CD
:0B082D00258340072482400B0209C015
:0808380024831450030209D6C9
:0E084000F582EA8DF0A4A8F0EA8EF0A428F864
:0E084E00E435F0F9EB8DF0A428E935F0F9E47B
:0E085C0033CA8FF0A429F9EA35F0FAEBF88ED2
:0E086A00F0A429F9EA35F0FAE433FBEC8DF046
:0E087800A429F9EA35F0FAE43BFBE88FF0A47E
:0E0886002AFAEB35F0FBE433CCFD8EF0A42A09
:0E089400FAEB35F0FBE43CFCED8FF0A42BFBFF
:0A08A200EC35F0FC20E7031208DD3E
:0308AC0002099F9F
:0D08AF00AA82AB83A2F73392D16002D2F788
:0E08BC00F582ACF0E58124F9F8E6FD08E6FED1
:0E08CA000886F008E6A2F73392D56002D2F756
:0508D800F583AFF022E2
:06003700E478FFF6D8FD9D
:0208DD0078049D
:0E08DF00EC700DC9CACBFCE58224F8F582D876
:0208ED00F122F6
:0208EF0078206F
:0E08F10020E7111582C3E933F9EA33FAEB333D
:0608FF00FBEC33FCD8EC19
:0109050022CF
:080015007900E94400601B7A48
:05001D0000900BAA7821
:030022000075A0C6
:0A00250000E493F2A308B8000205FE
:08002F00A0D9F4DAF275A0FF7C
:030906001208AF25
:090909007900E583B58202800D3E
:0509120050031209EE84
:08091700E583C39582120AF684
:08091F00E5D0C465D020E1170A
:0E092700EA2DFAEB3EFBEC3FFC500974011286
:060935000AF6EC4480FC10
:03093B0002099F0F
:0E093E00C3EA9DFAEB9EFBEC9FFC500FC3E456
:0D094C0099F9E49AFAE49BFBE49CFCB2D11B
:060959001208DD02099FF7
:08003D007800E84400600A7934
:030045000075A0A3
:0600480000E4F309D8FCFE
:08004E007800E84400600C7921
:0B00560000900000E4F0A3D8FCD9FAF1
:0E095F00120B39700AE582458345F0700122C3
:01096D00E4A5
:03096E0030D11273
:0E097100F4700BE5F0F47006E58330E7012228
:04097F009080002242
:0C098300700AE5F07006E58320E7012211
:04098F00907FFF2234
:0C099300E4AC83AB82FAF9748E020AAF68
:06099F00B98003EA13B366
:0E09A5004010EA2401FAE43BFBE43CFC500461
:0409B3007C800582BD
:0909B700BC000EBB000BBA0008E5
:0809C000E4F5F0F583F5822255
:0E09C800A2D1E582138CF092F78B838A8222F3
:0D09D600E4F583F58275F080F4A2D11322C0
:0B09E300E4F583F58275F0C0747F22FC
:0E09EE00E582C583F582A2D133A2D592D11342
:0C09FC0092D5ECCFFCEBCEFBEACDFA224A
:03000800758121DE
:0A000B00120B94E58260030200036B
:0E0A080020F71430F6148883A88220F507E644
:060A1600A8837583002295
:030A1C00E280F77E
:030A1F00E493223B
:020A2200E022D0
:0E0A2400C2D5E58330E70DD2D5E4C39582F547
:060A320082E49583F583C8
:0E0A3800E58124FEF8E630E70918E4C396F6DF
:040A4600E40896F634
:0E0A4A008601188600120A6B30D50BE4C395A6
:080A580082F582E49583F58329
:010A60002273
:0A0A6100E58124FEF88601188600E6
:060A6B00E84960367A0143
:0E0A7100E825E0F8E933400EF9E58298E583C8
:060A7F009940030A80EC1F
:020A8500C3E9C3
:050A870013F9E813F86B
:0E0A8C00C3E58298F5F0E583994005F5838572
:020A9A00F082E8
:090A9C00C3E913F9E813F8DAE7E5
:010AA500222E
:090AA600FCABF0AA83A982749E46
:020AAF00C2D1B2
:080AB100F5821208DD02099F25
:0E0AB900C2D5E58330E70DD2D5E4C39582F5B2
:060AC70082E49583F58333
:0E0ACD00E58124FEF8E630E70AB2D518E4C34E
:050ADB0096F6E4089608
:0E0AE000F918E6F81207E530D50BE4C395824D
:070AEE00F582E49583F58316
:010AF50022DE
:090AF6006040F82582500274FFF3
:0E0AFF00F582E824F8501ECCCBCAF9E4CC24D2
:0E0B0D00F85014CBCAF9E4CB24F8500BCAF907
:090B1B00E4CA24F8500379002219
:050B240024086010F838
:0E0B2900C3EC13FCEB13FBEA13FAE913F9D843
:010B3700F1CC
:010B3800229A
:0A0B3900120B98C3749E9582403998
:080B43007900120AF630D126F8
:0E0B4B00E9F42401F582EAF43400F583EBF4BA
:0E0B59003400F5F0ECF43400700AE5824583B8
:050B670045F0700122C1
:010B6C00E4A4
:040B6D0030E70F223C
:0B0B7100EC20E71489828A838BF022BD
:030B7C0030D10A6B
:0A0B7F00E4F582F583F5F07480229E
:0B0B890074FFF582F583F5F0747F2205
:040B94007582002244
:0D0B9800AA82AB83A2F73392D16002D2F79C
:050BA500F582ACF02216
:00000001FF
