:0400000002001332B5
:03000B0002067872
:07006C0075310075217E755E
:06007300223075236D75BB
:06007900247975253375A2
:06007F00265B75275F758A
:06008500287075297F754B
:06008B002A7B752B77753E
:060091002C1F752D4E75B9
:060097002E3D752F4F7590
:07009D0030477532B4E4F5B1
:0400A4003BF53CF5F7
:0400A8003DF53E756F
:0700AC003FE8754003E4F595
:0400B30041F542755C
:0700B70043E8754403E4F582
:0400BE0045F5467549
:0700C20047F4754801E4F565
:0400C90049F54A7536
:0600CD004BFAE4F54CF5CE
:0300D3004DF54E9A
:0300D60002000E17
:05000E001208C680FE8F
:0800D900AA82AB837C007D00CC
:0900E100C3EC9AED9B500B7E5A12
:0900EA00DEFE0CBC00F10D80EEFD
:0100F30022EA
:0600F400AA827B007C00E3
:0300FA00BC08003F
:0E00FD005038EB2BFBC2A0C002C003C004129F
:0E010B00018AD004D003D002EA3392A1C002D0
:0E011900C003C00412018AD2A012018AD004D1
:0A012700D003D00230A2034303010D
:06013100EA2AFA0C80C36B
:030137008B822296
:0E013A00AA82C2A3758201C0021200F4D00294
:0D014800BA010A7582E01200F4AA82800A52
:0A0155007582A01200F4AB828B0249
:0E015F00740F5AFC7B00758200C003C00412AE
:0E016D0000F4AD82D004D0038D027D00EA4282
:0E017B0003ED4204D2A3C2A0C2A18B828C83EA
:010189002253
:02018A007A05F4
:03018C00DAFE2276
:04018F00AA827B00C5
:03019300BB0800A6
:0E019600500CC2A0EA2A92A1FAD2A00B80EF70
:0101A4002238
:0A01A500C008858108AA82C2A48A5E
:0C01AF008212018FE50824FDF886821200
:0701BB00018FD2A4D008223D
:0A01C200C008858108C082C083C018
:0C01CC00F0C0E0A80808C3E496E4089620
:0E01D800E4089674800886F063F08095F0507D
:0C01E60010A80808860608860708860294
:0501F2000886038013E4
:0C01F700A80808C3E496FE08E496FF0880
:07020300E496FA08E496FB03
:04020A007A017B00FA
:0E020E00C374089AE49B406AEE4F6066C0021B
:0E021C00C003C006C007740AC0E0E4C0E08E54
:0E022A00828F83120B73AC8215811581D00771
:0C023800D006D003D002EC2421F886048C
:0E0244008A05C002C003C006C007C0048D8238
:0E0252001201A51581D007D006740AC0E0E4A1
:0E026000C0E08E828F831208EDAC82AD831554
:0E026E00811581D003D0028C068D070ABA00DC
:04027C00910B808ED4
:0C0280008A048B05A80808C3E6940A084D
:0E028C00E6940008E6940008E6648094805032
:0E029A0022C374089AE49B401A74012AFCE403
:0D02A8003BFDC004C0057401C0E08A821255
:0802B50001A51581D005D0045C
:0502BD000CBC00010D66
:0402C2008C028D031A
:0E02C600C374089AE49B401B8A04C002C00364
:0E02D400E4C0E08C821201A51581D003D00297
:0702E2000ABA00E00B80DD09
:0602E900850881D0082207
:0A02EF00C008858108C082C083C0EA
:0502F900F07D017E0014
:0E02FE00C374089DE49E403D7408C39DFFE458
:0C030C009EFAA80808EF26FFEA0836FA5F
:0D0318000886038F828A838BF0120B1A2453
:0C03250021F886028D03C005C006C0024E
:0E0331008B821201A51581D006D0050DBD00EE
:04033F00BE0E80BBB3
:06034300850881D00822AC
:0A034900C008858108C082C083C08F
:05035300F07D017E00B9
:0E035800C374089DE49E404B7408C39DFFE4EF
:0C0366009EFAAB317C00EB2FFFEC3A5309
:0C03720007077A00A80808EF26FFEA0839
:0E037E0036FA0886038F828A838BF0120B1AE0
:0C038C002421F886028D03C005C006C0C5
:0E039800028B821201A51581D006D0050DBD85
:0503A60000B00E80AD67
:0803AB0005317408B53103753A
:0203B300310017
:0A03B5009003E81200D9850881D0FA
:0203BF00082212
:0E03C1007401C0E075820C1201A51581E4C024
:0E03CF00E075820F1201A51581E4C0E0758271
:0E03DD00091201A515817407C0E075820B128C
:0E03EB0001A51581740EC0E075820A1201A5ED
:0403F90015817A01EF
:0503FD007408B50200C8
:0E0402004011C002E4C0E08A821201A51581FB
:05041000D0020A80E8A3
:0104150022C4
:0A041600C281120539C280020539C7
:0D042000C281120539D280120539D2810245
:02042D0005398F
:0A042F00A2009281120539D280125A
:070439000539C280020539FC
:0B044000120539D281120539D280125A
:0C044B000539A28192D7120539C2801237
:050457000539A2D722C7
:04045C00AA827B00F5
:03046000BB0800D6
:0A0463005025EA30E704D281800240
:02046D00C2814A
:0E046F00C002C003120539D280120539C280C6
:0D047D00120539D003D002EA2AFA0B80D60E
:03048A0002044029
:06048D007A00D2817B0021
:03049300BB0800A3
:0E0496005029EA2AFAD280C002C003120539AA
:0E04A400D003D002A281E4334202C002C003A2
:0E04B200120539C280120539D003D0020B802A
:0104C000D269
:0304C1008A82220A
:0A04C400C008858108AA82C0021258
:0A04CE000416D0028A8212045CE5D5
:0A04D8000824FDF8868212045CE59A
:0A04E2000824FCF8868212045C1264
:0504EC000420D00822ED
:0A04F100C008858108AA82C002122B
:0C04FB000416D0028A82C00212045CE5E4
:0A0507000824FDF8868212045C123D
:0D0511000420120416D00274014AF5821273
:0D051E00045C12048DAA82D2F0C00285F0A8
:05052B002012042F1254
:090530000420D0028A82D00822C6
:020539007A0541
:03053B00DAFE22C3
:06053E0075820702054A68
:0605440075820602054A63
:0A054A00C008E581F5082404F581DE
:0B055400AA82C0021204168532821237
:0E055F00045CD0028A8212045CD281D2801227
:09056D00041674014532F58212F6
:0E057600045C12048DAA827B00C2F0C002C099
:080584000385F02012042F1280
:0E058C00048DAC82D003D0028C05E44202ED57
:0C059A004203C2F0C002C00385F0201232
:0905A600042F12048DD2F085F03F
:0505AF002012042F12D0
:0E05B4000420D003D0028A828B83120AA5AAEB
:0E05C20082AB83ACF0FDC002C003C004C005D4
:0C05D00090D70A75F0A3743C12091EA815
:0C05DC000808A68208A68308A6F008F60E
:0C05E800E58124FCF581A80808860208C3
:0E05F40086030886040886057433C0E07493FD
:0E060200C0E07488C0E07443C0E08A828B833D
:0C0610008CF0ED1208E2A80808A6820891
:0E061C00A68308A6F008F6E58124FCF581A867
:0C062A000808860208860308860408867B
:0E06360005C002C003C004C00590000075F0AE
:0C06440020744112091EA80808A68208B4
:0E065000A68308A6F008F6E58124FCF581A833
:0C065E0008088602088603088604088647
:0C066A00058A828B838CF0ED850881D01E
:02067600082258
:0C067800C020C0E0C0F0C082C083C002FF
:0E068400C003C004C005C006C007C000C0010E
:0C069200C0D075D000758CFC758A18056E
:06069E003BE4B53B0C0536
:0506A4003CB53C070518
:0506A9003DB53D020516
:0106AE003E0D
:0506AF0010B7028002FB
:0206B4008002C2
:0206B600D2B7B9
:0A06B80074E8B53B0F7403B53C0A6B
:0A06C200E4B53D06E4B53E028003F6
:0306CC000208A978
:0606CF00E4F53BF53CF5EB
:0706D5003DF53E75820112A4
:0706DC00013A858237858396
:0A06E3003874E8C0E07403C0E0853D
:0606ED00378285388312FC
:0C06F30008EDAA8215811581EA2421F887
:0E06FF008602430280C0027582041201A51516
:0C070D008174E8C0E07403C0E08537820E
:0C071900853883120B73AA82AB83158114
:0E07250015817464C0E0E4C0E08A828B831208
:0C07330008EDAA8215811581EA2421F846
:0E073F008602C0027582031201A51581746442
:0A074D00C0E0E4C0E0853782853883
:0E07570083120B73AA82AB8315811581740A7D
:0E076500C0E0E4C0E08A828B831208EDAA8215
:0C07730015811581EA2421F88602C002DD
:0E077F007582021201A51581740AC0E0E4C063
:08078D00E085378285388312F4
:0C0795000B73AA8215811581EA2421F85B
:0E07A1008602C0027582011201A51581C3E512
:0A07AF003794E8E5389403E433FAC8
:0707B9006005753300803B71
:0A07C000EA7010C3E53794DCE53859
:0907CA00940550057533018028E7
:0A07D300C3E53794DCE538940540D7
:0A07DD000FE53794D0E5389407507B
:0607E70005753302800ECF
:0A07ED00C3E53794D0E538940740C7
:0407F7000375330350
:0807FB0012053E120A7185820D
:0A0803003585833674E8C0E0740305
:09080D00C0E085358285368312B6
:0E0816000B36AA82AB83158115817464C0E095
:0E082400E4C0E08A828B83120BCBAA8215817E
:0C0832001581EA2421F88602C0027582BC
:0E083E00071201A515817464C0E0E4C0E085D6
:06084C003582853683129F
:0E0852000B36AA82AB8315811581740AC0E0B3
:0E086000E4C0E08A828B83120BCBAA82158142
:0C086E001581EA2421F88602430280C0B4
:0E087A00027582061201A51581740AC0E0E421
:09088800C0E0853582853683123B
:0C0891000B36AA8215811581EA2421F89B
:0C089D008602C0027582051201A51581BB
:0E08A900D0D0D001D000D007D006D005D004AA
:0D08B700D003D002D083D082D0F0D0E0D0AA
:0208C4002032E0
:0E08C600D2AFD2A9758901758CFC758A18D243
:0C08D4008CD2A2D2A3C2A0C2A11203C108
:0208E00080FE98
:0B08E200A8811818C6B2E7C6020A1869
:0A08ED00E58124FEF8E6F918E6F8AC
:0508F7007A10E4FBFC97
:0E08FC00E58225E0F582E58333F583EB33FBDF
:0E090A00EC33FCEB98F5F0EC994006FCABF0FA
:0309180043820116
:03091B00DADF22FE
:06091E001209C1BC000338
:03092400020AD2F2
:08092700EF60FA30D502B2D1F5
:08092F00E583B4FF03020AE8AE
:08093700E582B4FF03020AE8A7
:0B093F00258340072482400B020AD2EF
:08094A002483145003020AE8A3
:0E095200F582EA8DF0A4A8F0EA8EF0A428F851
:0E096000E435F0F9EB8DF0A428E935F0F9E468
:0E096E0033CA8FF0A429F9EA35F0FAEBF88EBF
:0E097C00F0A429F9EA35F0FAE433FBEC8DF033
:0E098A00A429F9EA35F0FAE43BFBE88FF0A46B
:0E0998002AFAEB35F0FBE433CCFD8EF0A42AF6
:0E09A600FAEB35F0FBE43CFCED8FF0A42BFBEC
:0A09B400EC35F0FC20E7031209EF18
:0309BE00020AB179
:0D09C100AA82AB83A2F73392D16002D2F775
:0E09CE00F582ACF0E58124F9F8E6FD08E6FEBE
:0E09DC000886F008E6A2F73392D56002D2F743
:0509EA00F583AFF022CF
:06004200E478FFF6D8FD92
:0209EF0078048A
:0E09F100EC700DC9CACBFCE58224F8F582D863
:0209FF00F122E3
:020A010078205B
:0E0A030020E7111582C3E933F9EA33FAEB3329
:060A1100FBEC33FCD8EC05
:010A170022BC
:080020007900E94400601B7A3D
:0500280000900CBC7803
:03002D000075A0BB
:0A00300000E493F2A308B8000205F3
:08003A00A0D9F4DAF275A0FF71
:030A18001209C1FF
:090A1B007900E583B58202800D2B
:050A24005003120B005D
:080A2900E583C39582120C085D
:080A3100E5D0C465D020E117F7
:0E0A3900EA2DFAEB3EFBEC3FFC500974011273
:060A47000C08EC4480FCE9
:030A4D00020AB1E9
:0E0A5000C3EA9DFAEB9EFBEC9FFC500FC3E443
:0D0A5E0099F9E49AFAE49BFBE49CFCB2D108
:060A6B001209EF020AB1BE
:080048007800E84400600A7929
:030050000075A098
:0600530000E4F309D8FCF3
:080059007800E84400600C7916
:0B00610000900000E4F0A3D8FCD9FAE6
:0E0A7100120C4B700AE582458345F07001229D
:010A7F00E492
:030A800030D11260
:0E0A8300F4700BE5F0F47006E58330E7012215
:040A9100908000222F
:0C0A9500700AE5F07006E58320E70122FE
:040AA100907FFF2221
:0C0AA500E4AC83AB82FAF9748E020BC142
:060AB100B98003EA13B353
:0E0AB7004010EA2401FAE43BFBE43CFC50044E
:040AC5007C800582AA
:090AC900BC000EBB000BBA0008D2
:080AD200E4F5F0F583F5822242
:0E0ADA00A2D1E582138CF092F78B838A8222E0
:0D0AE800E4F583F58275F080F4A2D11322AD
:0B0AF500E4F583F58275F0C0747F22E9
:0E0B0000E582C583F582A2D133A2D592D1132E
:0C0B0E0092D5ECCFFCEBCEFBEACDFA2236
:0300130075814EA6
:0A001600120CA6E582600302000E42
:0E0B1A0020F71430F6148883A88220F507E631
:060B2800A8837583002282
:030B2E00E280F76B
:030B3100E4932228
:020B3400E022BD
:0E0B3600C2D5E58330E70DD2D5E4C39582F534
:060B440082E49583F583B5
:0E0B4A00E58124FEF8E630E70918E4C396F6CC
:040B5800E40896F621
:0E0B5C008601188600120B7D30D50BE4C39580
:080B6A0082F582E49583F58316
:010B72002260
:0A0B7300E58124FEF88601188600D3
:060B7D00E84960367A0130
:0E0B8300E825E0F8E933400EF9E58298E583B5
:060B91009940030A80EC0C
:020B9700C3E9B0
:050B990013F9E813F858
:0E0B9E00C3E58298F5F0E583994005F583855F
:020BAC00F082D5
:090BAE00C3E913F9E813F8DAE7D2
:010BB700221B
:090BB800FCABF0AA83A982749E33
:020BC100C2D19F
:080BC300F5821209EF020AB1EC
:0E0BCB00C2D5E58330E70DD2D5E4C39582F59F
:060BD90082E49583F58320
:0E0BDF00E58124FEF8E630E70AB2D518E4C33B
:050BED0096F6E40896F5
:0E0BF200F918E6F81208F730D50BE4C3958227
:070C0000F582E49583F58302
:010C070022CA
:090C08006040F82582500274FFDF
:0E0C1100F582E824F8501ECCCBCAF9E4CC24BE
:0E0C1F00F85014CBCAF9E4CB24F8500BCAF9F4
:090C2D00E4CA24F8500379002206
:050C360024086010F825
:0E0C3B00C3EC13FCEB13FBEA13FAE913F9D830
:010C4900F1B9
:010C4A002287
:0A0C4B00120CAAC3749E9582403972
:080C55007900120C0830D126D1
:0E0C5D00E9F42401F582EAF43400F583EBF4A7
:0E0C6B003400F5F0ECF43400700AE5824583A5
:050C790045F0700122AE
:010C7E00E491
:040C7F0030E70F2229
:0B0C8300EC20E71489828A838BF022AA
:030C8E0030D10A58
:0A0C9100E4F582F583F5F07480228B
:0B0C9B0074FFF582F583F5F0747F22F2
:040CA6007582002231
:0D0CAA00AA82AB83A2F73392D16002D2F789
:050CB700F582ACF02203
:00000001FF
