:030000000208CE25
:0C08CE00787FE4F6D8FD7581080209155A
:03098B0001080060
:10080000D2AFD2A8D288D2B2D2B3E508B410004099
:10081000030208B190081BF828287302084B02084D
:100820005102085702085D02086302086902086F56
:1008300002087502087B02088102088702088D02FF
:10084000089302089902089F0208A5C280C29080FE
:1008500060C281C291805AC282C2928054C283C255
:1008600093804EC284C2948048C285C2958042C2A1
:1008700086C296803CC287C2978036C2A7C2B0802B
:1008800030C2A6C2B1802AC2A5C2B48024C2A4C20A
:10089000B5801EC2A3C2B68018C2A2C2B78012C25F
:1008A000A1C2A0800C7580FF7590FF75A0FF75B088
:1008B000FF7F027E0012095A0508C3E508941074F0
:0E08C000809480500302080AE4F50802080A3A
:10095A00E4FDFCC3ED9FEC9E5016E4FBEBC3945AF6
:10096A007480948050030B80F30DBD00010C80E36A
:01097A00225A
:0300030002097B74
:10097B0075080F7580FF7590FF75A0FF75B0FF327E
:1008DA00020800E493A3F8E493A34003F68001F22C
:1008EA0008DFF48029E493A3F85407240CC8C3331F
:1008FA00C4540F4420C8834004F456800146F6DFEE
:10090A00E4800B010204081020408090098BE47EE9
:10091A00019360BCA3FF543F30E509541FFEE493E2
:10092A00A360010ECF54C025E060A840B8E493A3A9
:10093A00FAE493A3F8E493A3C8C582C8CAC583CAD4
:10094A00F0A3C8C582C8CAC583CADFE9DEE780BE8C
:01098E000068
:00000001FF
