:030000000208F201
:0C08F200787FE4F6D8FD75811002080044
:10080000750880E4F50FF51020B314E50E6401457A
:100810000D700C1208CE20B3066310FF630FFF208B
:10082000A03EE50A6401450970361208CE20A030CA
:10083000AF087E017801EF088002C313D8FCF508E9
:100840007003750880E510450F6015AF087E0178CC
:1008500001EF088002C313D8FCF508700375088007
:1008600020A141E50C6401450B70397F0AFE120896
:10087000D120A130AF087E017801EF088002C33398
:10088000D8FCF5087003750801E510450F6015AF39
:10089000087E017801EF088002C333D8FCF50870A8
:1008A00003750801E508F4F590A2A0E4337509008A
:1008B000F50AA2A1E433750B00F50CA2B3E433757D
:0E08C0000D00F50E7F0A7E001208D102080816
:0308CE007F0AFEA0
:1008D100E4FDFCC3ED9FEC9E5016E4FBEBC3947862
:1008E1007480948050030B80F30DBD00010C80E3F4
:0108F10022E4
:00000001FF
