:030000000208E90A
:0C08E900787FE4F6D8FD7581100208004D
:1008000075088030B224E50A4509701E7F0AFE1281
:1008100008C830B215AF087E017801EF088002C326
:1008200013D8FCF508700375088030B324E50C4537
:100830000B701E7F0AFE1208C830B315AF087E0188
:100840007801EF088002C333D8FCF50870037508FF
:100850000120A01F7FF47E011208C820A015AF0858
:100860007E017801EF088002C313D8FCF5087003FD
:1008700075088020A11F7FF47E011208C820A115F1
:10088000AF087E017801EF088002C333D8FCF50879
:100890007003750801E508F4F590A2B2E433750918
:1008A00000F50AA2B3E433750B00F50CA2A0E43303
:1008B000750D00F50EA2A1E433750F00F5107F0A47
:0808C0007E001208C8020803C3
:1008C800E4FDFCC3ED9FEC9E5016E4FBEBC394786B
:1008D8007480948050030B80F30DBD00010C80E3FD
:0108E80022ED
:00000001FF
