:0300000002097F73
:0C097F00787FE4F6D8FD7581340209C6CB
:100B550004110000000004250000000010157E307F
:100B65006D79335B5F707F7B771F4E3D4F4709087B
:090B75000100090006010103085A
:03000B00020A0BDB
:100A0B00C0E0C0F0C083C082C0D075D000C000C0B1
:100A1B0001C002C003C004C005C006C007758CFC32
:100A2B00758A18E5142401F514E43513F513E43530
:100A3B0012F512E43511F511E47FE87E03FDFCABF2
:100A4B0014AA13A912A811C31208CE7021E52824E9
:100A5B0001F528E43527F527E43526F526E4352579
:100A6B00F525751400751300751200751100D0076C
:100A7B00D006D005D004D003D002D001D000D0D006
:090A8B00D082D083D0F0D0E0321B
:1008DF007D017F0C120BBCE4FD7F0F120BBCE4FDFE
:1008EF007F09120BBC7D077F0B120BBC7D077F0AA4
:1008FF00120BBC7FA57E657D347C01120A947FB8F4
:10090F007E0B120B7F752B00752C06AF2CAE2B12A6
:10091F000B177FB87E0B120B7FC3E52B648094807F
:10092F004018AF2CAE2B120B177FE87E03120B7FF4
:10093F00E52C152C70E3152B80DFE4F529F52AC380
:10094F00E52A9403E529940050BB7FF47E01120B36
:10095F007FE4FD7F0C120BBC7FF47E01120B7F7DB9
:10096F00017F0C120BBC052AE52A70D3052980CF15
:100BA000E4FEEEC3940874809480500FC2A2EF3329
:0B0BB00092A4EF25E0FFD2A20E80E728
:010BBB002217
:0D0BBC00C2A3120BA0AF05120BA0D2A32202
:080A94008F308E2F8D2E8C2D6A
:100A9C00E4F531F532F533753401D3E5349401E5E1
:100AAC003394004016E4FFFEFDFCAB30AA2FA92EB8
:100ABC00A82D1208CE7004AF34803AE47B0AFAF900
:100ACC00F8AF30AE2FAD2EAC2D12083CAE02AF03FA
:100ADC008E318F32AF30AE2FAD2EAC2DE47B0AFAB7
:100AEC00F9F812083C8F308E2F8D2E8C2DAF34746C
:100AFC00152532F8E6FD120BBC0534E53470020501
:0A0B0C0033D39408E53394004090C1
:010B160022BC
:040B17008E2D8F2E62
:100B1B007B017A00C37409952ECFE4952DCFC39B2F
:100B2B00CF9AAD07FCC364809480AF035003E4807D
:100B3B000974082DF8E62415F8E6FD120BBC0BBB67
:090B4B0000010AEB64094A70CBB9
:010B5400227E
:100B7F00E4FDFCC3ED9FEC9E5016E4FBEBC39478B1
:100B8F007480948050030B80F30DBD00010C80E343
:010B9F002233
:10098B000208DFE493A3F8E493A34003F68001F29B
:10099B0008DFF48029E493A3F85407240CC8C3336D
:1009AB00C4540F4420C8834004F456800146F6DF3C
:1009BB00E4800B0102040810204080900B55E47E6C
:1009CB00019360BCA3FF543F30E509541FFEE49331
:1009DB00A360010ECF54C025E060A840B8E493A3F8
:1009EB00FAE493A3F8E493A3C8C582C8CAC583CA23
:1009FB00F0A3C8C582C8CAC583CADFE9DEE780BEDB
:010B7E000076
:1008000075F008758200EF2FFFEE33FECD33CDCCAF
:1008100033CCC58233C5829BED9AEC99E582984032
:100820000CF582EE9BFEED9AFDEC99FC0FD5F0D60F
:10083000E4CEFBE4CDFAE4CCF9A88222B800C1B939
:100840000059BA002DEC8BF084CFCECDFCE5F0CB77
:10085000F97818EF2FFFEE33FEED33FDEC33FCEBB0
:1008600033FB10D703994004EB99FB0FD8E5E4F96B
:10087000FA227818EF2FFFEE33FEED33FDEC33FC58
:10088000C933C910D7059BE99A4007EC9BFCE99A4C
:10089000F90FD8E0E4C9FAE4CCFB2275F010EF2F91
:1008A000FFEE33FEED33FDCC33CCC833C810D70791
:1008B0009BEC9AE899400AED9BFDEC9AFCE899F8CC
:0E08C0000FD5F0DAE4CDFBE4CCFAE4C8F9225F
:1008CE00EB9FF5F0EA9E42F0E99D42F0E89C45F080
:0108DE0022F7
:00000001FF
