:030000000208DF14
:0C08DF00787FE4F6D8FD7581240209261C
:100ADA00010800040900000000100D7E306D793312
:0B0AEA005B5F707F7B771F4E3D4F4726
:03000B000209EEF9
:1009EE00C0E0C0F0C083C082C0D075D000C000C0CF
:1009FE0001C002C003C004C005C006C007758CFC50
:100A0E00758A18E50C2401F50CE4350BF50BE4356D
:100A1E000AF50AE43509F50920B71DE508640170E9
:100A2E0017AF0CAE0BAD0AAC0912096B750C007545
:100A3E000B00750A00750900A2B7E433F508D0075C
:100A4E00D006D005D004D003D002D001D000D0D033
:090A5E00D082D083D0F0D0E03248
:100A67007D017F0C120AF6E4FD7F0F120AF6E4FD02
:100A77007F09120AF67D077F0B120AF6E4FD7F0A4B
:100A8700120AF6758901758CFC758A18D2A9D2AF3E
:060A9700D28CD2B780FEF4
:100ABE00E4FEEEC3940874809480500FC2A2EF330C
:0B0ACE0092A4EF25E0FFD2A20E80E70B
:010AD90022FA
:0D0AF600C2A3120ABEAF05120ABED2A3228F
:08096B008F208E1F8D1E8C1DD4
:10097300E4F521F522F523752401D3E5249401E55B
:100983002394004016E4FFFEFDFCAB20AA1FA91E22
:10099300A81D1208CE7004AF24803AE47B0AFAF94A
:1009A300F8AF20AE1FAD1EAC1D12083CAE02AF0364
:1009B3008E218F22AF20AE1FAD1EAC1DE47B0AFA41
:1009C300F9F812083C8F208E1F8D1E8C1DAF2474E6
:1009D3000D2522F8E6FD120AF60524E5247002052A
:0A09E30023D39408E523940040900C
:0109ED0022E7
:100A9D00E4FDFCC3ED9FEC9E5016E4FBEBC3947894
:100AAD007480948050030B80F30DBD00010C80E326
:010ABD002216
:1008EB00020A67E493A3F8E493A34003F68001F2B2
:1008FB0008DFF48029E493A3F85407240CC8C3330E
:10090B00C4540F4420C8834004F456800146F6DFDC
:10091B00E4800B0102040810204080900ADAE47E88
:10092B00019360BCA3FF543F30E509541FFEE493D1
:10093B00A360010ECF54C025E060A840B8E493A398
:10094B00FAE493A3F8E493A3C8C582C8CAC583CAC3
:10095B00F0A3C8C582C8CAC583CADFE9DEE780BE7B
:010AF5000000
:1008000075F008758200EF2FFFEE33FECD33CDCCAF
:1008100033CCC58233C5829BED9AEC99E582984032
:100820000CF582EE9BFEED9AFDEC99FC0FD5F0D60F
:10083000E4CEFBE4CDFAE4CCF9A88222B800C1B939
:100840000059BA002DEC8BF084CFCECDFCE5F0CB77
:10085000F97818EF2FFFEE33FEED33FDEC33FCEBB0
:1008600033FB10D703994004EB99FB0FD8E5E4F96B
:10087000FA227818EF2FFFEE33FEED33FDEC33FC58
:10088000C933C910D7059BE99A4007EC9BFCE99A4C
:10089000F90FD8E0E4C9FAE4CCFB2275F010EF2F91
:1008A000FFEE33FEED33FDCC33CCC833C810D70791
:1008B0009BEC9AE899400AED9BFDEC9AFCE899F8CC
:0E08C0000FD5F0DAE4CDFBE4CCFAE4C8F9225F
:1008CE00EB9FF5F0EA9E42F0E99D42F0E89C45F080
:0108DE0022F7
:00000001FF
