:03000000020905ED
:0C090500787FE4F6D8FD75812602094CCD
:10099100100C7E306D79335B5F707F7B771F4E3D2E
:1009A1004F47071C01020304030201010800010A69
:0109B1000045
:030023000209CF00
:1009CF00309902C299309808C29885990B750A011F
:0109DF0032E5
:10080000E4F523F524F52575A89075985075892091
:10081000758DFAD28E7D017F0C1209E0E4FD7F0F09
:100820001209E0E4FD7F091209E07D077F0B120940
:10083000E07D077F0A1209E030B20930B30630A02C
:100840000320A130C3E523940374809480502805CD
:1008500023E5236403702020B20375090120B3034C
:1008600075090220A00375090320A1037509047509
:1008700008018003E4F523E5086401700585099902
:10088000F508E50A64017033C3E524940774809485
:10089000805022741C2524F8E6B50B1CC374079500
:1008A00024FFAE240524741C2EF8E6240CF8E6FD83
:1008B0001209E08003E4F524E4F50AE5247027E555
:1008C000257023AD0C7F081209E0752601C3E526CB
:1008D000940874809480500BE4FDAF261209E00563
:1008E0002680EA752501E52464076003020838E5DF
:1008F0002564016003020838AD0D7F081209E0E4A9
:05090000F52502083896
:1009B300E4FEEEC3940874809480500FC2A2EF3318
:0B09C30092A4EF25E0FFD2A20E80E717
:0109CE002206
:0D09E000C2A31209B3AF051209B3D2A322BE
:10091100020800E493A3F8E493A34003F68001F2F4
:1009210008DFF48029E493A3F85407240CC8C333E7
:10093100C4540F4420C8834004F456800146F6DFB6
:10094100E4800B0102040810204080900991E47EAC
:10095100019360BCA3FF543F30E509541FFEE493AB
:10096100A360010ECF54C025E060A840B8E493A372
:10097100FAE493A3F8E493A3C8C582C8CAC583CA9D
:10098100F0A3C8C582C8CAC583CADFE9DEE780BE55
:0109B2000044
:00000001FF
