:03000000020800F3
:0C080000787FE4F6D8FD75811E020847E1
:10096B0008100713D38383D313070808000CEC700C
:04097B0070EC0C0010
:100954001208F9751B00751C00751D107B007A00C8
:07096400790812088C80ECF9
:10091F00E4FEEEC3940874809480500FC2A2EF33AC
:0B092F0092A4EF25E0FFD2A20E80E7AB
:01093A00229A
:10093B00AC07C2A312091FAF0312091FAF041209A0
:09094B001FAF0512091FD2A322FF
:06088C008B188A19891A7D
:10089200E4F51EC3E51E940874809480502BE51E77
:1008A20004FFAB18AA19A91A851E827583001208C3
:1008B200CCFDAB1BAA1CA91D851E827583001208E4
:0908C200CCFB12093B051E80CAA3
:0108CB00220A
:1008F9007B017D017F0C12093B1B1D7F0F12093BF8
:100909007F0912093B7B077D077F0B12093BE4FB3B
:06091900FD7F0A02093B0C
:10080C00020954E493A3F8E493A34003F68001F2A5
:10081C0008DFF48029E493A3F85407240CC8C333ED
:10082C00C4540F4420C8834004F456800146F6DFBC
:10083C00E4800B010204081020408090096BE47ED8
:10084C00019360BCA3FF543F30E509541FFEE493B1
:10085C00A360010ECF54C025E060A840B8E493A378
:10086C00FAE493A3F8E493A3C8C582C8CAC583CAA3
:10087C00F0A3C8C582C8CAC583CADFE9DEE780BE5B
:01097F000077
:1008CC00BB010CE58229F582E5833AF583E02250E1
:1008DC0006E92582F8E622BBFE06E92582F8E2222B
:0D08EC00E58229F582E5833AF583E4932245
:00000001FF
