:03000000020800F3
:0C080000787FE4F6D8FD758137020847C8
:1009060020280A01400120011001080208030804FA
:10091600080508060807080808080408020840072A
:0F09260040064005400440034002400208000024
:10088C00753240753301E4F534F53512095AD3E568
:10089C000994C0E508945D4017E4F508F5090535A1
:1008AC00E53570020534641445347004F534F535BF
:1008BC007536007537010509E50970020508E5353F
:1008CC0025E0240AF8E6FFB5370EE4B5360AE5351F
:1008DC0025E0240BF8E68003AF37E4FD12097A0516
:1008EC0037E53770020536D39408E536940040C6D8
:0A08FC000509E509709805088094CD
:10093600E4FEEEC394087480948050170509E50917
:1009460070020508C2A2EF3392A4EF25E0FFD2A2FF
:030956000E80DF31
:01095900227B
:10097A00C2A30509E50970020508120936AF051276
:0D098A000936D2A30509E50970020508220F
:10095A007D017F0C12097A1D7F0F12097A7F091215
:10096A00097A7D077F0B12097A7D057F0A02097AC7
:10080C0002088CE493A3F8E493A34003F68001F26E
:10081C0008DFF48029E493A3F85407240CC8C333ED
:10082C00C4540F4420C8834004F456800146F6DFBC
:10083C00E4800B0102040810204080900906E47E3D
:10084C00019360BCA3FF543F30E509541FFEE493B1
:10085C00A360010ECF54C025E060A840B8E493A378
:10086C00FAE493A3F8E493A3C8C582C8CAC583CAA3
:10087C00F0A3C8C582C8CAC583CADFE9DEE780BE5B
:0109350000C1
:00000001FF
