:03000000020923CF
:0C092300787FE4F6D8FD75812402096A93
:080A6A00070807060307060355
:100A4A0010087E306D79335B5F707F7B771F4E3D78
:020A5A004F4704
:1009ED0078187C007D007BFF7A0A796A7E007F088B
:1009FD001208D0120A0E7B007A0079181209AF8006
:010A0D00F5F3
:100A2E00E4FEEEC3940874809480500FC2A2EF339C
:0B0A3E0092A4EF25E0FFD2A20E80E79B
:010A4900228A
:0D0A5D00C2A3120A2EAF05120A2ED2A32248
:0609AF008B208A21892241
:1009B500752300752401AF24AB20AA21A922C37495
:1009C500089524FDE495238D82F5831208F6240805
:1009D500F8E6FD120A5D0524E52470020523D3948B
:0709E50008E523940040CF58
:0109EC0022E8
:100A0E007D017F0C120A5D1D7F0F120A5D7F091298
:100A1E000A5D7D077F0B120A5DE4FD7F0A020A5D07
:10092F000209EDE493A3F8E493A34003F68001F2E8
:10093F0008DFF48029E493A3F85407240CC8C333C9
:10094F00C4540F4420C8834004F456800146F6DF98
:10095F00E4800B0102040810204080900A4AE47ED4
:10096F00019360BCA3FF543F30E509541FFEE4938D
:10097F00A360010ECF54C025E060A840B8E493A354
:10098F00FAE493A3F8E493A3C8C582C8CAC583CA7F
:10099F00F0A3C8C582C8CAC583CADFE9DEE780BE37
:010A5C000099
:10080000E709F608DFFA8046E709F208DFFA803EDA
:1008100088828C83E709F0A3DFFA8032E309F608C7
:10082000DFFA8078E309F208DFFA807088828C832F
:10083000E309F0A3DFFA806489828A83E0A3F608E3
:10084000DFFA805889828A83E0A3F208DFFA804CBD
:1008500080D280FA80C680D4806980F28033801094
:1008600080A680EA809A80A880DA80E280CA8033FD
:1008700089828A83ECFAE493A3C8C582C8CCC58375
:10088000CCF0A3C8C582C8CCC583CCDFE9DEE78045
:100890000D89828A83E493A3F608DFF9ECFAA9F0C4
:1008A000EDFB2289828A83ECFAE0A3C8C582C8CC1A
:1008B000C583CCF0A3C8C582C8CCC583CCDFEADE33
:1008C000E880DB89828A83E493A3F208DFF980CC95
:1008D00088F0EF60010E4E60C388F0ED2402B4048E
:1008E0000050B9F582EB2402B4040050AF23234535
:0608F00082239008507302
:1008F600BB010CE58229F582E5833AF583E02250B7
:1009060006E92582F8E622BBFE06E92582F8E22200
:0D091600E58229F582E5833AF583E493221A
:00000001FF
