:03000000020923CF
:0C092300787FE4F6D8FD75812502096A92
:080AA700010203040506070823
:100A840010097E306D79335B5F707F7B771F4E3D3D
:050A94004F47010800BE
:100A060078197C007D007BFF7A0A79A77E007F0833
:100A16001208D0120A487B007A0079191209AF80B1
:010A2600F5DA
:100A6800E4FEEEC3940874809480500FC2A2EF3362
:0B0A780092A4EF25E0FFD2A20E80E761
:010A83002250
:0D0A9A00C2A3120A68AF05120A68D2A32297
:0609AF008B218A2289233E
:1009B500752400752501AF25C374089525FDE495BB
:1009C50024FCE5082DFDED5407AB21AA22A923F54A
:1009D500827583001208F62409F8E6FD120A9A05C5
:1009E50025E52570020524D39408E524940040C626
:1009F5000508E50864087002F5087FE87E03020A29
:010A050027C9
:100A48007D017F0C120A9A1D7F0F120A9A7F0912E4
:100A58000A9A7D077F0B120A9AE4FD7F0A020A9A16
:100A2700E4FDFCC3ED9FEC9E5016E4FBEBC394780A
:100A37007480948050030B80F30DBD00010C80E39C
:010A4700228C
:10092F00020A06E493A3F8E493A34003F68001F2CE
:10093F0008DFF48029E493A3F85407240CC8C333C9
:10094F00C4540F4420C8834004F456800146F6DF98
:10095F00E4800B0102040810204080900A84E47E9A
:10096F00019360BCA3FF543F30E509541FFEE4938D
:10097F00A360010ECF54C025E060A840B8E493A354
:10098F00FAE493A3F8E493A3C8C582C8CAC583CA7F
:10099F00F0A3C8C582C8CAC583CADFE9DEE780BE37
:010A9900005C
:10080000E709F608DFFA8046E709F208DFFA803EDA
:1008100088828C83E709F0A3DFFA8032E309F608C7
:10082000DFFA8078E309F208DFFA807088828C832F
:10083000E309F0A3DFFA806489828A83E0A3F608E3
:10084000DFFA805889828A83E0A3F208DFFA804CBD
:1008500080D280FA80C680D4806980F28033801094
:1008600080A680EA809A80A880DA80E280CA8033FD
:1008700089828A83ECFAE493A3C8C582C8CCC58375
:10088000CCF0A3C8C582C8CCC583CCDFE9DEE78045
:100890000D89828A83E493A3F608DFF9ECFAA9F0C4
:1008A000EDFB2289828A83ECFAE0A3C8C582C8CC1A
:1008B000C583CCF0A3C8C582C8CCC583CCDFEADE33
:1008C000E880DB89828A83E493A3F208DFF980CC95
:1008D00088F0EF60010E4E60C388F0ED2402B4048E
:1008E0000050B9F582EB2402B4040050AF23234535
:0608F00082239008507302
:1008F600BB010CE58229F582E5833AF583E02250B7
:1009060006E92582F8E622BBFE06E92582F8E22200
:0D091600E58229F582E5833AF583E493221A
:00000001FF
