:03000000020800F3
:0C080000787FE4F6D8FD75811C020847E3
:1009980010090713D38383D31307000CEC7070EC92
:0509A8000C0001080035
:0E09AE0012091C7B007A00790912088C80F572
:10096300E4FEEEC3940874809480500FC2A2EF3368
:0B09730092A4EF25E0FFD2A20E80E767
:01097E002256
:10097F00AC07C2A3120963AF03120963AF041209D4
:09098F0063AF05120963D2A32233
:06088C008B198A1A891B7A
:10089200E4F51CC3E51C940874809480503DE51C6B
:1008A20004FFE51CFDE5082DFDED540FAB19AA1A56
:1008B200A91BF5827583001208EFFDE5082408FBE9
:1008C200E51C7583002BFBEB540FF582AB19AA1ABA
:1008D2001208EFFB12097F051C80B80508E50864C1
:0D08E2001070037508017FE87E03020942D3
:10091C007B017D017F0C12097F1B1D7F0F12097F4C
:10092C007F0912097F7B077D077F0B12097FE4FB90
:06093C00FD7F0A02097FA5
:10094200E4FDFCC3ED9FEC9E5016E4FBEBC39478F0
:100952007480948050030B80F30DBD00010C80E382
:010962002272
:10080C000209AEE493A3F8E493A34003F68001F24B
:10081C0008DFF48029E493A3F85407240CC8C333ED
:10082C00C4540F4420C8834004F456800146F6DFBC
:10083C00E4800B0102040810204080900998E47EAB
:10084C00019360BCA3FF543F30E509541FFEE493B1
:10085C00A360010ECF54C025E060A840B8E493A378
:10086C00FAE493A3F8E493A3C8C582C8CAC583CAA3
:10087C00F0A3C8C582C8CAC583CADFE9DEE780BE5B
:0109AD000049
:1008EF00BB010CE58229F582E5833AF583E02250BE
:1008FF0006E92582F8E622BBFE06E92582F8E22208
:0D090F00E58229F582E5833AF583E4932221
:00000001FF
