:030000000208D51E
:0C08D500787FE4F6D8FD75813502091C1F
:100C6F00170C74FEF590037D0312000C80F67EC8FE
:0D0C7F007FE6DFFEDEFADDF622022300171D
:10080000E4F525F526F527F528F529F52AD280D235
:1008100081D282C283120AAA20A02AE52664014559
:100820002570227F0AFE120BE220A0191209E48F24
:100830000BEF70087590FE120C8D8009E50B6401BA
:100840007003120C4D20A138E52864014527703053
:100850007F0AFE120BE220A1271209618F09EF70B7
:10086000087590FC120C8D8017E509640170051263
:100870000C4D800CE509640270067590BF120B7177
:1008800020B22DE52A6401452970257F0AFE120B4E
:10089000E220B21C120AF08F08EF70087590F8126F
:1008A0000C8D800CE5086401700675907F120C5069
:1008B000A2A0E433752500F526A2A1E43375270034
:1008C000F528A2B2E433752900F52A7F147E0012C0
:0508D0000BE202081814
:1009E400E4F52BF52CC280C2827F01FE120BE2D209
:1009F400837F0A7E00120BE2120C03EF6469600F1E
:100A0400C2837F647E00120BE2120BDA7F01221292
:100A14000C28120BDEE4F52BF52CC3E52C9524E50C
:100A24002B9523501F740C252CF8E6FDAF2CAE2B10
:100A3400120B347F017E00120BE2052CE52C70DAD8
:100A4400052B80D6C2837F647E00120BE2120BDA80
:020A54007F0021
:010A5600227D
:10096100E4F52CF52DC280C2827F01FE120BE2D28A
:10097100837F0A7E00120BE2120C038F2BEF646956
:10098100600FC2837F647E00120BE2120BDA7F01DB
:1009910022E4F52CF52DC3E52D9524E52C95235066
:1009A10033AF2DAE2C120BAE8F2B7F017E00120BBD
:1009B100E2740C252DF8E6652B600FC2837F647EFF
:1009C10000120BE2120BDA7F0222052DE52D70C613
:1009D100052C80C2C2837F647E00120BE2120BDA07
:0209E1007F0095
:0109E30022F1
:100AF000E4F52BF52CC280C2827F01FE120BE2D2FC
:100B0000837F0A7E00120BE2120C03EF6469600F10
:100B1000C2837F647E00120BE2120BDA7F01221285
:100B20000C28120BDEC2837F647E00120BE2120BD4
:030B3000DA7F0069
:010B3300229F
:040BAE008E2E8F2FC9
:100BB2007F20120A57120CAAE52EFF120A57120CB6
:100BC200AAAF2FE52F120A57120CAAE4FF120A57F6
:070BD2008F30120CAAAF30B6
:010BD90022F9
:060B34008E2D8F2E8D2F87
:100B3A007F40120A57120CAAE52DFF120A57120C0F
:100B4A00AAAF2EE52E120A577530008F31120CAA61
:100B5A00AF2F120A578F32120CAAE531F530E5325F
:060B6A00F531AE30AF31A1
:010B70002262
:100C03007FAC120A57120CAA7F53120A57120CAA6E
:100C1300E4FF120A57120CAA7F11120A578F2E12E1
:040C23000CAAAF2E3A
:010C270022AA
:100C28007FAC120A57120CAA7F80120A57120CAA1C
:100C38007F12120A57120CAA7F13120A578F2D120D
:040C48000CAAAF2D16
:010C4C002285
:020A57008F33DB
:100A5900E4F534F535C282120CAAE4F534C3E53461
:100A69009408748094805036E53354806480700211
:100A79008001C39280E53325E0F533120CAAD282B6
:100A8900120CAAE53525E0F5353081054401FF80D2
:100A990002AF358F35C282120CAA053480BFAF353B
:010AA900222A
:100AAA007590557FC87E00120BE27590AA7FC87EAA
:100ABA0000120BE27590557FC87E00120BE275900A
:100ACA00AA7FC87E00120BE27590557FC87E00127D
:100ADA000BE27590AA7FC87E00120BE27590FF7F29
:060AEA00F47E01020BE2A4
:080BDA00D280D2827FE87E0385
:100BE200E4FDFCC3ED9FEC9E5016E4FBEBC3945A6C
:100BF2007480948050030B80F30DBD00010C80E3E0
:010C020022CF
:0F0CAA00E4FFEFC394057480948050030F80F330
:010CB9002218
:100C8D00E4F583F582D2B77F017E00120BE2C2B785
:0C0C9D00120BE2A3E5826464458370E959
:010CA9002228
:030C4D0075907F20
:100C5000E4F583F582D2B77F017E00120BE2C2B7C2
:0E0C6000120BE2A3E582B4F4ECE583B401E7E5
:010C6E002263
:100B7100E4F583F582D2B77F017E00120BE2C2B7A2
:100B8100120BE2A3E582B4F4ECE583B401E7E4F5EA
:100B910083F582D2B77F017E00120BE2C2B7120B3E
:0C0BA100E2A3E582B4F4ECE583B401E7C4
:010BAD002225
:1008E100020800E493A3F8E493A34003F68001F225
:1008F10008DFF48029E493A3F85407240CC8C33318
:10090100C4540F4420C8834004F456800146F6DFE6
:10091100E4800B0102040810204080900C6FE47EFB
:10092100019360BCA3FF543F30E509541FFEE493DB
:10093100A360010ECF54C025E060A840B8E493A3A2
:10094100FAE493A3F8E493A3C8C582C8CAC583CACD
:10095100F0A3C8C582C8CAC583CADFE9DEE780BE85
:010C8C000067
:00000001FF
