:0300000002097181
:0C097100787FE4F6D8FD7581190209B802
:100A7D00100A03E803E80777070C06A6064705ECFE
:020A8D000598CA
:03000B000208CE1A
:1008CE00C0E0C0F0C083C082C0D075D000C000C0F0
:1008DE0001C002C003C004C005C006C007E509255B
:1008EE00E0240AF8E6FE08E6FBAA06EA3395E0F9EC
:1008FE00F8C3E49BFFE49AFE740199FDE498FCE4CE
:10090E00FB7A01F9F81209FD8F8CE50925E0240A1E
:10091E00F8E6FE08E6FBAA06EA3395E0F9F8C3E42A
:10092E009BFFE49AFE740199FDE498FCE4FB7A01C6
:10093E00F9F81209FDAF038F8AD3E5099401E50892
:10094E00648094804002B2B7D007D006D005D004A0
:10095E00D003D002D001D000D0D0D082D083D0F03E
:03096E00D0E032A4
:100A4100758901758CFC758A18D2A9D2AFD28C2018
:100A5100B30675080075090220A00675080075091E
:100A61000420A10675080075090620B2080509E5EC
:0C0A71000970020508E4F508F50980D3BF
:10097D00020A41E493A3F8E493A34003F68001F245
:10098D0008DFF48029E493A3F85407240CC8C3337B
:10099D00C4540F4420C8834004F456800146F6DF4A
:1009AD00E4800B0102040810204080900A7DE47E53
:1009BD00019360BCA3FF543F30E509541FFEE4933F
:1009CD00A360010ECF54C025E060A840B8E493A306
:1009DD00FAE493A3F8E493A3C8C582C8CAC583CA31
:1009ED00F0A3C8C582C8CAC583CADFE9DEE780BEE9
:010A8F000066
:1009FD00C2D5E830E70FB2D5E4C39BFBE49AFAE425
:100A0D0099F9E498F8EC30E717B2D5120A331208C9
:100A1D003CE4C39BFBE49AFAE499F9E498F880036B
:100A2D0012083C30D50DE4C39FFFE49EFEE49DFD0E
:040A3D00E49CFC2217
:1008000075F008758200EF2FFFEE33FECD33CDCCAF
:1008100033CCC58233C5829BED9AEC99E582984032
:100820000CF582EE9BFEED9AFDEC99FC0FD5F0D60F
:10083000E4CEFBE4CDFAE4CCF9A88222B800C1B939
:100840000059BA002DEC8BF084CFCECDFCE5F0CB77
:10085000F97818EF2FFFEE33FEED33FDEC33FCEBB0
:1008600033FB10D703994004EB99FB0FD8E5E4F96B
:10087000FA227818EF2FFFEE33FEED33FDEC33FC58
:10088000C933C910D7059BE99A4007EC9BFCE99A4C
:10089000F90FD8E0E4C9FAE4CCFB2275F010EF2F91
:1008A000FFEE33FEED33FDCC33CCC833C810D70791
:1008B0009BEC9AE899400AED9BFDEC9AFCE899F8CC
:0E08C0000FD5F0DAE4CDFBE4CCFAE4C8F9225F
:00000001FF
