:03000000020F6983
:0C0F6900787FE4F6D8FD758120020BE0D3
:100800004C6162332044656D6F004F6C6564204914
:100810006E746572666163650048656C6C6F205725
:100820006F726C6421212121210000000000000072
:100830000000000000000000002F00000000000089
:1008400000070000000700000014007F0014007F74
:1008500000140024002A007F002A00120023001345
:100860000008006400620036004900550022005074
:10087000000000050003000000000000001C002232
:1008800000410000000000410022001C0000001494
:100890000008003E0008001400080008003E0008A0
:1008A00000080000000000A0006000000008000830
:1008B0000008000800080000006000600000000060
:1008C00000200010000800040002003E0051004912
:1008D0000045003E00000042007F00400000004252
:1008E0000061005100490046002100410045004BD5
:1008F0000031001800140012007F0010002700458E
:10090000004500450039003C004A004900490030DC
:10091000000100710009000500030036004900498C
:10092000004900360006004900490029001E000069
:1009300000360036000000000000005600360000BF
:100940000000000800140022004100000014001400
:1009500000140014001400000041002200140008DC
:100960000002000100510009000600320049005950
:100970000051003E007C001200110012007C007F3C
:100980000049004900490036003E00410041004155
:100990000022007F004100410022001C007F00492E
:1009A000004900490041007F0009000900090001D9
:1009B000003E004100490049007A007F000800081D
:1009C0000008007F00000041007F0041000000207F
:1009D00000400041003F0001007F00080014002299
:1009E0000041007F0040004000400040007F0002C6
:1009F000000C0002007F007F000400080010007F50
:100A0000003E004100410041003E007F0009000916
:100A100000090006003E004100510021005E007FF9
:100A20000009001900290046004600490049004914
:100A3000003100010001007F00010001003F004083
:100A400000400040003F001F002000400020001F29
:100A5000003F004000380040003F006300140008E1
:100A60000014006300070008007000080007006120
:100A700000510049004500430000007F0041004153
:100A80000000005500AA005500AA005500000041D2
:100A90000041007F00000004000200010002000489
:100AA00000400040004000400040000000030005FE
:100AB0000000000000200054005400540078007F23
:100AC000004800440044003800380044004400441A
:100AD00000200038004400440048007F00380054E3
:100AE0000054005400180008007E000900010002B4
:100AF000001800A400A400A4007C007F00080004EB
:100B00000004007800000044007D00400000004028
:100B100000800084007D0000007F00100028004459
:100B2000000000000041007F00400000007C000445
:100B3000001800040078007C00080004000400781D
:100B40000038004400440044003800FC0024002425
:100B500000240018001800240024001800FC007C69
:100B60000008000400040008004800540054005429
:100B700000200004003F004400400020003C0040F2
:100B800000400020007C001C002000400020001CD1
:100B9000003C004000300040003C004400280010B1
:100BA00000280044001C00A000A000A0007C00441D
:100BB00000640054004C004400000010007C0082DF
:100BC00000000000000000FF0000000000000082A4
:100BD000007C00100000000000060009000900066B
:100D36007FA8120F8D7F3F120F8D7FD3120F8DE488
:100D4600FF120F8D7F40120F8D7FA1120F8D7FC86E
:100D5600120F8D7FDA120F8D7F12120F8D7F811287
:100D66000F8D7F7F120F8D7FA4120F8D7FA6120F1E
:100D76008D7FD5120F8D7F80120F8D7F8D120F8D77
:0D0D86007F14120F8D7FAF120F8D020DEF45
:100D9300E4F50DEF640A6053EF24E0F50FE434FF4C
:100DA300F50EFEAF0F7C007D05120E978E0E8F0F92
:100DB300E4F50DAF0D7E00C3EF940574809480506D
:100DC30025E50F2FFFEE350EFEEF25E0FFEE33FE98
:100DD300742A2FF58274083EF583E4740193FF129D
:0B0DE3000F96050D80CDE4FF120F9667
:010DEE0022E2
:100ED2008B0A8A0B890CAB0AAA0BA90C120E7E6034
:100EE20013050CE50C7002050B14F9120E7EFF12AD
:050EF2000D9380E222D7
:100DEF00E4F50BC3E50B9408748094805022E4FD66
:100DFF00AF0B120EF7E4F50AC3E50A9480748094E2
:100E0F00805009E4FF120F96050A80EC050B80D382
:010E1F0022B0
:100EF7008F0C8D0D050D050DE50D540FFF120F8D90
:100F0700E50DC4540F4410FF120F8DE50C44B0FFDC
:030F1700020F8D39
:090F8D00AB07E4FD7F78020F1AA6
:090F9600AB077D407F78020F1AC1
:0F0F4C00D281D280120F35C281120F35C280229E
:0C0F7500C281D280120F35D281020F35EC
:0E0F5B00A2009281D280120F35C280020F35A3
:0C0F8100D280120F35A281C280020F3511
:020EA9008F13A5
:100EAB00E4F514C3E5149408748094805016E5138C
:100EBB0025E0F5139281D280120F35C280120F35C7
:070ECB00051480DF020F8116
:100E2000E4F519D281F518C3E5189408748094800C
:100E3000501AE51925E0F519D280120F35A281E488
:0E0E4000334219C280120F35051880DBAF193E
:010E4E002281
:100F1A008F108D118B12120F4CAF10120EA9AF1138
:0B0F2A00120EA9AF12120EA9020F75E3
:040E4F008F158D1658
:100E5300120F4CAF15120EA9AF16120EA9120F7571
:100E6300120F4CE5154401FF120EA9120E208F1725
:0A0E7300D200120F5B120F75AF17CB
:010E7D002252
:100F3500E4FFEFFD3395E0FCC3ED9405EC6480948C
:060F45008050030F80EC58
:010F4B002283
:100BE000E4F508D281D280120D36E4FDFF120EF733
:100BF0007F38120D937F30120D937F35120D937F46
:100C000031120D937F20120D937F26120D937F20BA
:100C1000120D937F4F120D937F4C120D937F45124F
:100C20000D937F44120D937D50E4FF120EF77FFF6A
:100C3000120F967FFE120F967FFC120F967FF8120E
:100C40000F967FF0120F967FE0120F967FC0120F63
:100C5000967F80120F96E4FF120F967F80120F96F8
:100C60007FFF120F967FE7120F967FC3120F967FBA
:100C700081120F96E4FF120F967F81120F967FC3A9
:100C8000120F967FE7120F967FFF120F96E4FF1266
:100C90000F967F80120F967FC0120F967FE0120F83
:100CA000967FF0120F967FF8120F967FFC120F9628
:100CB0007FFE120F967FFF120F967D0A7F02120EA3
:100CC000F77BFF7A087900120ED27D147F04120E92
:100CD000F77BFF7A08790A120ED2750901C3E5097C
:100CE0009405748094805014C3E5089509FD7F062F
:100CF000120EF7E4FF120F96050980E1AD087F069A
:100D0000120EF77BFF7A087919120ED20508E50852
:100D100064807002F5080508E50864807002F50833
:100D20000508E50864807002F5080508E508648098
:060D300070A8F50880A484
:100E7E00BB010689828A83E0225002E722BBFE0272
:090E8E00E32289828A83E49322A5
:100E9700EF8DF0A4A8F0CF8CF0A428CE8DF0A42E6F
:020EA700FE2229
:00000001FF
