:03000000020008F3
:0700610075087E750930757A
:060068000A6D750B7975AD
:06006E000C33750D5B75FB
:060074000E5F750F7075B0
:06007A00107F75117B757B
:0600800012FE7513B075BD
:0200860014ED77
:0300880002000370
:050003001201E080FE87
:06008B00AA827B007C004C
:03009100BC0800A8
:0E0094005038EB2BFBC2A0C002C003C0041208
:0E00A2000121D004D003D002EA3392A1C002A3
:0E00B000C003C004120121D2A0120121D0040D
:0A00BE00D003D00230A20343030177
:0600C800EA2AFA0C80C3D5
:0300CE008B822200
:0E00D100AA82C2A3758201C00212008BD00267
:0D00DF00BA010A7582E012008BAA82800A25
:0A00EC007582A012008BAB828B021C
:0E00F600740F5AFC7B00758200C003C0041218
:0E010400008BAD82D004D0038D027D00EA4254
:0E01120003ED4204D2A3C2A0C2A18B828C8353
:0101200022BC
:020121007A055D
:03012300DAFE22DF
:09012600C01C85811CAA827B002B
:03012F00BB08000A
:0E013200500CC2A0EA2A92A1FAD2A00B80EFD4
:020140007A0043
:03014200BA0800F8
:0C0145005019C2A0E51C24FDF8E633921E
:0C015100A1E51C24FDF8E625E0F6D2A094
:03015D000A80E233
:03016000D01C228E
:0A016300C01C85811CAA82C2A47B87
:01016D000190
:0C016E00C002C003E51C24FDF8E6C0E060
:0E017A008A821201261581D003D002DBE7D263
:04018800A4D01C22C1
:0E018C007401C0E075820C1201631581E4C09D
:0E019A00E075820F1201631581E4C0E07582EA
:0E01A8000912016315817407C0E075820B1205
:0E01B60001631581E4C0E075820A1201631531
:0301C400817A013C
:0501C7007408B5020000
:0E01CC004011C002E4C0E08A82120163158176
:0501DA00D0020A80E8DC
:0101DF0022FD
:0B01E000D2A2D2A3C2A0C2A112018CC7
:0B01EB007582011200D185821585830A
:0A01F6001674E8C0E07403C0E08551
:0602000015828516831231
:0C020600043FAA8215811581EA2408F843
:0E0212008602430280C0027582041201631549
:0C0220008174E8C0E07403C0E085158222
:0C022C00851683120706AA82AB83158199
:0E02380015817464C0E0E4C0E08A828B8312FA
:0C024600043FAA8215811581EA2408F803
:0E0252008602C0027582031201631581746476
:0A026000C0E0E4C0E08515828516B9
:0E026A0083120706AA82AB8315811581740AE0
:0E027800C0E0E4C0E08A828B8312043FAA82B9
:0C02860015811581EA2408F88602C002E8
:0E0292007582021201631581740AC0E0E4C097
:0802A000E0851582851683122A
:0C02A8000706AA8215811581EA2408F8D7
:0D02B4008602C0027582011201631581856A
:0602C10015828516831270
:0E02C70005C3AA82AB83ACF0FDC002C003C029
:0E02D50004C00590495275F09D7439120470F2
:0E02E300AA82AB83ACF0FDE58124FCF58174AA
:0E02F100C2C0E07486C0E07427C0E0743DC057
:0E02FF00E08A828B838CF0ED120434AA82AB6D
:0E030D0083ACF0FDE58124FCF581C002C00345
:0D031B00C004C00590000075F0C8744212C7
:0E0328000643AA82AB83ACF0FDE58124FCF510
:0D033600818A828B838CF0ED1205CF8582C9
:0A0343001785831874E8C0E0740306
:09034D00C0E085178285188312B7
:0C035600043FAA8215811581EA2408F8F2
:0E0362008602C002758208120163158174E8DC
:0A037000C0E07403C0E08517828529
:0C037A001883120706AA82AB83158115B8
:0D038600817464C0E0E4C0E08A828B8312C1
:0C039300043FAA8215811581EA2408F8B5
:0E039F008602430280C00275820712016315B8
:0C03AD00817464C0E0E4C0E08517828524
:0C03B9001883120706AA82AB8315811579
:0D03C50081740AC0E0E4C0E08A828B8312DC
:0C03D200043FAA8215811581EA2408F876
:0E03DE008602C0027582061201631581740A40
:0A03EC00C0E0E4C0E0851782851828
:0C03F60083120706AA8215811581EA24F3
:0C04020008F88602C00275820512016332
:0B040E0015819000C81204190201EBD8
:08041900AA82AB837C007D0088
:09042100C3EC9AED9B500B7E78B0
:09042A00DEFE0CBC00F10D80EEB9
:0104330022A6
:0B043400A8811818C6B2E7C602056ACE
:0A043F00E58124FEF8E6F918E6F85E
:050449007A10E4FBFC49
:0E044E00E58225E0F582E58333F583EB33FB91
:0E045C00EC33FCEB98F5F0EC994006FCABF0AD
:03046A00438201C9
:03046D00DADF22B1
:06047000120513BC00039D
:030476000205FB81
:08047900EF60FA30D502B2D1A8
:08048100E583B4FF030206113C
:08048900E582B4FF0302061135
:0B049100258340072482400B0205FB7E
:08049C00248314500302061131
:0E04A400F582EA8DF0A4A8F0EA8EF0A428F804
:0E04B200E435F0F9EB8DF0A428E935F0F9E41B
:0E04C00033CA8FF0A429F9EA35F0FAEBF88E72
:0E04CE00F0A429F9EA35F0FAE433FBEC8DF0E6
:0E04DC00A429F9EA35F0FAE43BFBE88FF0A41E
:0E04EA002AFAEB35F0FBE433CCFD8EF0A42AA9
:0E04F800FAEB35F0FBE43CFCED8FF0A42BFB9F
:0A050600EC35F0FC20E7031205417C
:030510000205DA07
:0D051300AA82AB83A2F73392D16002D2F727
:0E052000F582ACF0E58124F9F8E6FD08E6FE70
:0E052E000886F008E6A2F73392D56002D2F7F5
:05053C00F583AFF02281
:06003700E478FFF6D8FD9D
:0205410078043C
:0E054300EC700DC9CACBFCE58224F8F582D815
:02055100F12295
:0205530078200E
:0E05550020E7111582C3E933F9EA33FAEB33DC
:06056300FBEC33FCD8ECB8
:01056900226F
:080015007900E94400601B7A48
:05001D00009007DE78F1
:030022000075A0C6
:0A00250000E493F2A308B8000205FE
:08002F00A0D9F4DAF275A0FF7C
:03056A0012051364
:09056D007900E583B58202800DDE
:050576005003120629EC
:08057B00E583C3958212075EBF
:08058300E5D0C465D020E117AA
:0E058B00EA2DFAEB3EFBEC3FFC500974011226
:06059900075EEC4480FC4B
:03059F000205DA78
:0E05A200C3EA9DFAEB9EFBEC9FFC500FC3E4F6
:0D05B00099F9E49AFAE49BFBE49CFCB2D1BB
:0605BD001205410205DAFF
:08003D007800E84400600A7934
:030045000075A0A3
:0600480000E4F309D8FCFE
:08004E007800E84400600C7921
:0B00560000900000E4F0A3D8FCD9FAF1
:0C05C300E4AC83AB82FAF9748E0207549A
:0B05CF007F8E1207A7F58385F08222C3
:0605DA00B98003EA13B32F
:0E05E0004010EA2401FAE43BFBE43CFC50042A
:0405EE007C80058286
:0905F200BC000EBB000BBA0008AE
:0805FB00E4F5F0F583F582221E
:0E060300A2D1E582138CF092F78B838A8222BB
:0D061100E4F583F58275F080F4A2D1132288
:0B061E00E4F583F58275F0C0747F22C4
:0E062900E582C583F582A2D133A2D592D1130A
:0C06370092D5ECCFFCEBCEFBEACDFA2212
:0806430012051330D502B2D1FB
:09064B00BF0009BC000302061EF9
:030654000206118A
:06065700BC00030205FBDC
:0D065D00E583B4FF0BE582B4FF0302061E27
:03066A000205FB8B
:08066D00E582B4FF030206114F
:0C067500C395835007247F400B0205FB57
:0806810024801450030206114D
:0E068900F582C3ED9AEE9BEF9C40111582C3E3
:0E069700EA33F9EB33FAEC33FBE433FC800575
:0506A500E4CCCBCAF912
:0506AA00C08275F0198B
:0E06AF00C3E99DEA9EEB9FEC9400D5F002801B
:0106BD002D0F
:0E06BE00400EE99DF9EA9EFAEB9FFBEC9400DA
:0206CC00FCC36D
:0E06CE00B3E833F8E58233F582E58333F58334
:0E06DC00C3E933F9EA33FAEB33FBEC33FC806D
:0106EA00C44B
:0E06EB00B3E4F938FAE43582FBE43583FCD041
:0706F90082500405827C80A1
:060700001205410205F2A2
:0300080075811CE3
:0A000B001207A1E582600302000362
:0A070600E58124FEF8860118860044
:06071000E84960367A01A1
:0E071600E825E0F8E933400EF9E58298E58326
:060724009940030A80EC7D
:02072A00C3E921
:05072C0013F9E813F8C9
:0E073100C3E58298F5F0E583994005F58385D0
:02073F00F08246
:09074100C3E913F9E813F8DAE743
:01074A00228C
:09074B00FCABF0AA83A982749EA4
:02075400C2D110
:08075600F5821205410205DAEB
:09075E006040F82582500274FF8E
:0E076700F582E824F8501ECCCBCAF9E4CC246D
:0E077500F85014CBCAF9E4CB24F8500BCAF9A3
:09078300E4CA24F85003790022B5
:05078C0024086010F8D4
:0E079100C3EC13FCEB13FBEA13FAE913F9D8DF
:01079F00F168
:0107A0002236
:0407A100758200223B
:0207A5007F9E35
:0907A7001207CC30D1030205FB5E
:0E07B000C3EF9582500974FFF5F0F583F582D2
:0107BE002218
:0507BF00790012075E45
:0807C40089828A838BF0EC228C
:0D07CC00AA82AB83A2F73392D16002D2F76C
:0507D900F582ACF022E6
:00000001FF
